:020000040800F2
:1000000058030020490400084D0400084F0400086C
:1000100051040008530400085504000800000000C3
:10002000000000000000000000000000570400086D
:1000300059040008000000005B0400085D0400088B
:10004000031C00085F0400085F040008891700080B
:100050005F0400085F0400083D1A00085F04000800
:100060005F0400085F0400085F0400085F040008E4
:100070005F0400085F0400085F0400085F040008D4
:100080005F0400085F0400085F0400085F040008C4
:100090005F0400085F0400085F0400085F040008B4
:1000A0005F040008070300085F0400085F040008FD
:1000B000B5020008950100085F0400085F0400080D
:1000C0005F0400085F0400085F0400085F04000884
:1000D0005F040008531200085F0400085F04000872
:1000E0005F0400085F0400085F04000800F002F8E5
:1000F00000F03FF80AA090E8000C82448344AAF183
:100100000107DA4501D100F034F8AFF2090EBAE880
:100110000F0013F0010F18BFFB1A43F0010318473B
:100120001823000038230000103A24BF78C878C193
:10013000FAD8520724BF30C830C144BF04680C60ED
:10014000704700000023002400250026103A28BF35
:1001500078C1FBD8520728BF30C148BF0B60704739
:10016000642901F0AD85002070471FB51FBD10B593
:1001700010BD01F06DFE1146FFF7F7FF00F07EF9AC
:1001800001F08BFE03B4FFF7F2FF03BC01F052F85D
:1001900030BF0000A04800889F48008820F0010080
:1001A0009D490880704770B505460C469B48C0695C
:1001B00040F002009949C86197481C300580001F33
:1001C00004809548001F008840F001009249091FF3
:1001D00008800846008840F0400008808E481038AB
:1001E000008840F001008C491039088003231D224B
:1001F0001946184600F0AAFE70BD884AD26942F03E
:100200000202864BDA611A46926942F004029A6150
:10021000834A126822F07F42814B1A601A461268A4
:1002200042F03B421A607C4A1C321080121F11803F
:10023000794A0832128842F07002774B08331A80EC
:100240001A46128842F008021A80734A1032128845
:1002500042F00102704B10331A801A46128842F0A5
:1002600002021A806C4A0832128842F4E0426A4B59
:1002700008331A801A46128842F400621A80664ACD
:100280001032128842F01002634B10331A801A4663
:10029000128842F020021A805F4A103A128802F057
:1002A00080025D4B103B1A801A46128842F0010210
:1002B0001A8070474FF08040008A4FF08040008ADB
:1002C00020F001004FF080410882704770B505466C
:1002D0000C465248C06940F001005049C86188048A
:1002E00085850485808940F001008904888108465D
:1002F000808940F04000888101231C220321184698
:1003000000F024FE70BD4748008800F0010000287E
:100310005BD04548007820B144480088401C4349E0
:1003200008804348007805280FDB414800780B28F7
:100330000BDC3E4800883F490988884205DB0020E5
:100340003A49088001203C490870394800780B2858
:1003500013DB3A4800781E280FDB354800780E285A
:100360000BDC3248008836490988884205DB0020CA
:100370002E4908800120304908702D480078122845
:1003800013DB2E4800781E280FDB29480078182838
:100390000BDC264800882B490988884205DB0020B1
:1003A00022490880012024490870204800883C2800
:1003B00005D100201D49088001201F4908701948F7
:1003C000008820F0010017490880704770B5054685
:1003D0000C461248806940F4006010498861114859
:1003E0001C300580001F04800E48001F008840F06C
:1003F00001000C49091F08800A481038008840F0A5
:1004000001000849103908800323192219460220E7
:1004100000F09CFD70BD0000100400400010024080
:1004200000080140102C0140300000200200002094
:10043000440000201800002000000020450000209B
:100440001A0000201C00002008480047FEE7FEE7D5
:10045000FEE7FEE7FEE7FEE7FEE7FEE7FEE7FEE774
:1004600003480449024A044B70470000ED000008AD
:100470005801002058030020580100201FB5002417
:1004800000BF002500BF092000F078FE482000F0E2
:10049000EDFC4FF46141482000F016FF01F0A6FA90
:1004A00047214FF47A70FFF7A8FE4FF400414FF652
:1004B000FF70FFF70BFF01F0AAF80020FE4908804B
:1004C000091D08804FF080418884FC49088000F0B5
:1004D0001DFEFDE31E2000F0E5FC0020F849087039
:1004E000F84800783038F849087008460078342811
:1004F00076D012DC062878D006DC062872D2DFE837
:1005000000F071333F4B576307286CD008286BD03D
:10051000322817D0332865D173E1402871D008DC28
:1005200035286FD03C286ED03D286DD03E28F2D1C2
:10053000D0E0432869D0442868D0482867D0612893
:10054000E9D1A2E20020E14908700846007838B9F4
:10055000DF480178DFA001F073FB0120DB49087060
:100560009120D849087090E20120D94908700846C6
:100570000178D8A001F064FB9120D249087084E290
:100580000220D349087008460178D2A001F058FB38
:100590009120CC49087078E20320CD4908700846C4
:1005A0000178CCA001F04CFB9120C64908706CE2A8
:1005B0000420C749087008460178C6A001F040FB36
:1005C0009120C049087060E20520C14908700846C2
:1005D0000178C0A001F034FB9120BA49087054E2C0
:1005E00016E002E050E290E0A1E00620B849087071
:1005F00008460178B7A001F023FB9120B1490870AB
:1006000043E21DE010E02FE049E023E011E22EE29A
:100610000720AF49087008460178AEA001F010FB32
:100620009120A849087030E20820A94908700846BE
:100630000178A8A001F004FB9120A249087024E2EF
:100640000120A54908700020A449087091209D4907
:1006500008701AE20020A049087001209F49087024
:1006600091209849087010E21E2000F01BFC95486C
:100670008078303893494978303901EB810100EBBB
:100680004100974908800846018896A001F0D8FAF1
:10069000642000F007FC91208A490870F5E11E20D3
:1006A00000F000FC87488078303886494978303936
:1006B00001EB810100EB41008B490880084601886D
:1006C0008AA001F0BDFA642000F0ECFB91207D4986
:1006D0000870DAE11E2000F0E5FB7A4880783038B7
:1006E00078494978303901EB810100EB41008049BC
:1006F0000880084601887FA001F0A2FA642000F07B
:10070000D1FB91206F490870BFE100206F4908704C
:100710000846007838B97848017878A001F090FA56
:1007200001206A490870912066490870ADE10020F7
:10073000664908700846007800285ED101200870DC
:10074000322000F0AFFB002404E0642000F0AAFB9C
:10075000601CC4B2072CF8DB5D4880795C4949799C
:100760005B4A12795A4BDB78CDE90032CDE90210B1
:10077000574883784278017863A001F061FA4620F7
:1007800000F090FB6448018864A001F059FA46200B
:1007900000F088FB6048418860A001F051FA4620D3
:1007A00000F080FB5C4881885CA001F049FA46209B
:1007B00000F078FB5848C18858A001F041FA462063
:1007C00000F070FB5448018954A001F039FA46202A
:1007D00000F068FB5048418950A001F031FA4620F2
:1007E00000F060FB4C4881894CA001F029FA4620BA
:1007F00000F058FB4AA001F023FA9120314908701B
:1008000043E11E2000F04EFB2E48407830384FF474
:100810007A7148432B498978303901EBC10202EBE8
:10082000011100EB81012748C078303800EB8000CF
:1008300001EB400123480079303808443A490880E8
:100840002048807930381F494979303901EB8101DE
:1008500000EB4100354908701A48007A30381949D0
:10086000C979303901EB810100EB41003049087052
:100870001448807A30381349497A303901EB8101C4
:1008800000EB41002B4908700E48007B30380D49C1
:10089000C97A303901EB810100EB4100264908702B
:1008A0000848807B30380749497B303901EB8101AA
:1008B00000EB4100214943E034040040240800409B
:1008C0003C000020A80000202D0000202E00002069
:1008D000250000207325640005000020040000208E
:1008E000180000206C2564001A0000206D256400AB
:1008F0001C0000206E2564002C000020256420735D
:100900007461747573000000722564256425642584
:1009100064256425642564000A00002071256400B4
:10092000646F6E650000000040000020420000205F
:100930004300002044000020450000204600002025
:10094000087008460078FE490978CDE90010FD4896
:100950000378FD480278FD480178FD48008800F0E2
:10096000D9FD642000F09EFAFA480078F44909782D
:10097000F44A1278CDE900210290F3480378F34855
:100980000278F3480188F4A001F05AF90020F749F1
:1009900088810021F548C181018241828182C18222
:1009A0000020F24908830021F04841838183C183FC
:1009B000018441840020ED4988840021EB48C184F2
:1009C000018541858185C1850020E849088600218F
:1009D000E64841868186C186018741870020E34938
:1009E00088870021E148C187A0F84010A0F8421094
:1009F000A0F84410A0F846100020DC49A1F84800F7
:100A00000021DA48A0F84A10A0F84C10A0F84E10C7
:100A1000A0F85010A0F852100020D5490880488056
:100A20008880C8800881488188819120D1490870D8
:100A30002BE0C7480088002812DDC6480078C0496E
:100A40000978C04A1278CDE900210290BE480378A7
:100A5000BE480278BE480188BFA001F0F1F802E06C
:100A6000C5A001F0EDF89120C24908700DE0C5481D
:100A70000388C5480288C5480188C5A001F0E0F890
:100A80009120BC49087000E000BF00BFC348007857
:100A9000B0B3C3480068012832D100F089FF48F69E
:100AA0009F4147F22F50FFF791FC0020BD4908807D
:100AB000BB49B031086016E00A2000F0F3F9BE2D02
:100AC0000FDD0120B8490870B8490870B8490870AE
:100AD0000020B249087000250120B149B0310860FA
:100AE00008E0681C85B2AD48007818B1AC480068D1
:100AF0000128E1D000BF00209D490880AD49088051
:100B0000AA48007800286AD0A9480078002866D052
:100B1000A948007828B1A9A001F092F80020A649C0
:100B200008700120A8490870A8490870A8480078F2
:100B300009283ED2DFE800F03D050C131A21282FCA
:100B400036004FF49670A3490880091D088031E0F3
:100B50004FF4C8709F490880091D08802AE04FF4AF
:100B6000FA709C490880091D088023E04FF4167034
:100B700098490880091D08801CE04FF42F709549A2
:100B80000880091D088015E040F2EE209149088098
:100B9000091D08800EE040F252308E490880091D80
:100BA000088007E040F2B6308A490880091D0880B5
:100BB00000E000BF00BF7C48007880B100BF7848EB
:100BC00000680128FBD0002404E06F206949085523
:100BD000601CC4B20E2CF8DB0020734908707E48FC
:100BE000007898B17848007828B17CA001F028F806
:100BF00000207549087001206F4908700220734970
:100C00000870002073490880091D08807648007824
:100C100058B96748007800287ED04FF08040808C1B
:100C2000C82190FBF1F0282876DB00206E4908707F
:100C3000664908705E490870674908705B4908702A
:100C4000012056490870002062490880091D08806B
:100C50004FF08041888465490880062458E0601E72
:100C600000EB4000414931F8200004EB44013F4AC9
:100C700022F82100601E00EB4000114601EB8000CD
:100C8000408804EB440102EB81014880601E00EBC8
:100C90004000114601EB8000808804EB440102EB28
:100CA00081018880601E00EB4000114601EB80004E
:100CB000C08804EB440102EB8101C880601E00EB98
:100CC0004000114601EB8000008904EB440100E084
:100CD000B9E002EB81010881601E00EB4000114683
:100CE00001EB8000408904EB440102EB8101488163
:100CF000601E3F49085C0855601E3549085C085570
:100D0000601E1B4931F8100021F81400601EC4B2A7
:100D1000002CA4DC0E4800E08BE00088134908801A
:100D20000A4800784880084800788880054800789C
:100D3000C88003480078088106480078488159E057
:100D40004500002044000020430000204200002015
:100D500040000020460000202564202564202564F2
:100D60002025642025642025640000005400002014
:100D70000A000020A800002074696D652065727269
:100D80006F7200001C0000201A00002018000020D4
:100D90002564202564202564000000000700002051
:100DA00000012142242C0140080000200600002000
:100DB0000400002002000020310000203120737464
:100DC0006174757300000000300000202C000020CA
:100DD00025000020340400400500002032207374F8
:100DE00061747573000000000000002024080040BA
:100DF0001E00002000BF154800680128FBD014A089
:100E000000F01EFF00204FF08041888413490880C5
:100E1000002404E06F2012490855601CC4B20E2C57
:100E2000F8DB00200F49087000F070F9642000F032
:100E300039F80D48007830B10448006818B9002529
:100E400000BF00F063F9FFF745BB0000000121423D
:100E5000332073746174757300000000240800402F
:100E6000A80000203C000020070000204FF0E021F7
:100E7000096921F004014FF0E0221161C21700EB73
:100E80005272C2F3C702234B1A701946097801EB5C
:100E90004102C2EBC1114FF6FF7202EAC1011E4AC4
:100EA0001180704701461C4A12884A434FF0E023E4
:100EB0005A6100229A6101221A6100BF4FF0E022BC
:100EC000106900F001021AB100F48032002AF5D056
:100ED00000224FF0E0231A619A61704701460D4AE3
:100EE00012784A434FF0E0235A6100229A610122AE
:100EF0001A6100BF4FF0E022106900F001021AB140
:100F000000F48032002AF5D000224FF0E0231A616D
:100F10009A6170473200002034000020B94A0A402C
:100F20000243B94B1A6070470146072323EA0102C6
:100F30001202B54B1B1D18684FF6FF031840B34B48
:100F400018431043B04B1B1D186070472DE9F04744
:100F50008046894614461D462046E11704EB9171F0
:100F6000C1F3870AE11704EB91718910A4EB8101A9
:100F7000CFB2042000EBC700C7B22846FFF7D4FF6A
:100F8000C5F1040008FA00F60F20284100EA090024
:100F9000064306F00F06202C09DA9D48016801205F
:100FA000A04001434FF0E020C0F800110BE098484A
:100FB000001D0068A4F1200101228A4010434FF077
:100FC000E021C1F80401934850F82A0006FA07F11D
:100FD0000843904941F82A00BDE8F08770B50446FF
:100FE0000B46CE1701EB9676C6F38700CE1701EBC2
:100FF0009676B610A1EB8606B606350E864B9B6933
:1010000043F00103844EB3614FEAB63353F8203006
:101010000F26AE40B343814E46F82030334653F896
:10102000203004FA05F61E437C4B43F820607C4BCD
:101030001B6801268E403343794E336002F0010372
:1010400043B1774B0C331B6801268E403343744EFB
:101050000C36336002F0020343B1714B08331E6853
:1010600001238B401E436E4B08331E6070BD00B5DC
:10107000002069490861C860142048610020886127
:10108000C8610846006840F00100086008464068F2
:101090006449084060494860084600686249084061
:1010A0005D4908600846006820F480200860084612
:1010B000406820F4FE0048600020886000214FF066
:1010C0000060FFF72BFF00BD10B54F4808300068E7
:1010D00040F004004C49083108604F48C06940F0B6
:1010E00080504D49C8615148406840F480704F4974
:1010F00048600846006840F0040008600846006840
:1011000040F002000860FFF743F810BD10B53E48FC
:101110000830006840F004003B49083108603E4850
:10112000C06940F080503C49C8614048006820F0E8
:1011300002003E4908600846006840F0010008606F
:10114000FFF726F810BD3148001D2F49091D086022
:10115000704701464906304A926942F001022E4B1F
:101160009A612E4A083A526822F0E0622B4B083B03
:101170005A601A4652680A435A60704730B50446AE
:101180000025FFF774FF2448006840F480302249AE
:10119000086000BF20480068400C0028FAD04FF4D7
:1011A00080601D494860A01EC4B20846406840EAFD
:1011B000844048600846406840F4803048601C48DD
:1011C000006840F032001A4908601348006840F097
:1011D00080701149086000BF0F480068400E002869
:1011E000FAD00D48406840F002000B49486005E025
:1011F00009484068C0F3870505F00305022DF7D1C3
:1012000030BD000080FFFF1F08ED00E00000FA0580
:1012100000E100E000E400E00010024008000140AE
:10122000000401400000FFF8FFFFF6FE00700040E0
:1012300000200240014600BF704700BF584A128894
:1012400002F04002002AF9D0C2B2554B1B1D1A8091
:1012500070475349098801F0200111B35049091D15
:101260000988C8B24F49097801F08001C9B94D49D0
:10127000097801F0400161B10A2803D00021494AF0
:10128000117020E04749097841F08001454A11700A
:1012900019E00D2806D14349097841F04001414A3F
:1012A000117010E03F49097801F03F013E4A505467
:1012B0003C490978491C3B4A1170114609783F297D
:1012C00001DD0021117070472DE9F05F05460E46E3
:1012D000300100F033FF8146344905FB01F000F096
:1012E0002DFF8246494600F047FE0746384600F08B
:1012F00005FF84B2204600F021FF8346394600F006
:10130000FDFF82464FF0834100F02CFF814600F044
:10131000F5FE80464FF6FF7000EA041404EB080067
:1013200084B22348806940F004002149886108465E
:10133000806940F4804088611E48006820F47F6026
:101340001C4908600846006840F40B6008601848B3
:10135000C06840F480401649C8600846C06820F460
:101360008040C8600E4808300480001D008842F2AA
:101370000C0108430A490C3108800846008840F4F3
:10138000807008800846008840F020000880022312
:10139000252203210846FFF7D9FDBDE8F09F000094
:1013A000003801403C000020A800002040420F000F
:1013B00000100240040801400146CA1701EB927276
:1013C0009210A1EB820292B9642091FBF0F200FB33
:1013D000121050B94FF4C87091FBF0F200FB1210DC
:1013E00008B9012070470020FCE70120FAE700203F
:1013F000F8E730B5002500230024FE4805882D04B9
:10140000001D00880544FC48B5FBF0F3FB4800884C
:1014100098423AD0F9490B8040F2B2740EE020466F
:10142000FFF7CAFF30B1B3F5B77F02D3A3F5B773A7
:1014300002E006E0A3F26D13601C84B2B3F5B67F40
:10144000EDD800BFEE488480002416E0EC4988887F
:10145000FFF7B2FF30B1012C04D11D2B01D31D3B8E
:1014600009E00CE0E748005D984203D8E548005DDC
:101470001B1A00E003E0601C84B21C2BE6D200BF04
:10148000601CDF498871581CC871DB48B5FBF0F15E
:1014900000FB11534FF46160B3FBF0F0D8490870C2
:1014A0004FF46160B3FBF0F100FB11303C21B0FB65
:1014B000F1F0D34948704FF46160B3FBF0F100FBE9
:1014C00011303C21B0FBF1F201FB1200CC498870D5
:1014D00008468088CC490880C9488079CB49087083
:1014E000C748C079CA490870C5480078C94908701A
:1014F000C3484078C8490870C1488078C749087017
:10150000C748007820B1C7480088401CC5490880FA
:10151000002030BD2DE9F04705460E461746984697
:10152000DDE9089A002340F2B270854203DB40F601
:101530003300854202DD0120BDE8F08740F2B2743D
:101540000AE02046FFF738FF10B1B748034401E036
:10155000B6480344601C84B2AC42F2DB701EC6B2D3
:10156000002410E0A748005D40F2A321484303EBAC
:10157000C0132846FFF720FF18B1012C01D19E4867
:101580000344601C84B2B442ECDB781E40F2A32119
:10159000484303EBC013C8EB4810C0EB082003EB33
:1015A0000013C9EB091003EB80035344A048C06942
:1015B00040F080509E49C8610846C06940F0006014
:1015C000C8619C48006840F480709A490860894866
:1015D0001438008840F01000864914390880854985
:1015E000091D0B80180C091F0880824814380088D8
:1015F00020F010007F491439088000BF7D4814385E
:10160000008800F020000028F8D0002094E71CB5E6
:1016100000248948008845F2500188427ED08448E1
:10162000C06940F080508249C8610846C06940F0F6
:101630000060C8617F48006840F480707D490860A0
:101640007B48006A40F48030794908620846006AA5
:1016500020F4803008620846006A40F00100086209
:1016600004E0601CC4B20A20FFF71CFC7048006A4A
:1016700000F0020008B9FA2CF3DBFA2C01DB0120A0
:101680001CBD6B48006A40F48070694908620846D6
:10169000006A40F40040086200BF564814380088D1
:1016A00000F020000028F8D000BF5248143800880D
:1016B00000F008000028F8D04E481838008840F0A4
:1016C00001004C491839088000BF4A481438008886
:1016D00000F020000028F8D046481438008840F078
:1016E00010004449143908800020091D088047F67D
:1016F000FF70091D08804948007847490978CDE9FD
:1017000000104448037842480278404801783E4837
:101710000088FFF7FFFE3748143800E012E0008829
:1017200020F0100033491439088000BF31481438C4
:10173000008800F020000028F8D045F250003E4913
:10174000088017E000BF2B481438008800F008001C
:101750000028F8D027481838008840F001002549B3
:101760001839088000BF23481438008800F0200092
:101770000028F8D00223032200210846FFF7E6FBE9
:10178000FFF737FE00207BE700B51A4814380088C1
:1017900000F0010008B1FFF72CFE1648143800884D
:1017A00040F6FA71084013491439088000BF114807
:1017B0001438008800F020000028F8D000BDF0B5F3
:1017C00003460C461546642093FBF0F0C6B2642035
:1017D00093FBF0F700FB1730C1B2132E02DD01F1CD
:1017E0006400C1B20846CF1701EB977701EBA7075A
:1017F000BAB223E0182800408051010050000020B8
:10180000E8000020062400084000002042000020DC
:101810004300002044000020450000204600002036
:10182000300000200A0000200085E2018033E10141
:101830000010024000700040046C0040072092FB42
:10184000F0F700FB172082B25719601EDFF850C175
:101850001CF80000384482B2CF1701EB9777BF1015
:10186000A1EB87071FB9032C01DA501E82B20720B3
:1018700092FBF0F700FB1720C0B2F0BD70B5034635
:10188000002409E013F8015B11F8016BB54201D0A7
:10189000002070BD601CC4B29442F3DB0120F8E765
:1018A0002DE9FE47002406E03E480068005D02A9DD
:1018B0000855601CC4B2032CF6DB00240BE004EBDB
:1018C0004401394A8818032202A9FFF7D7FF00B163
:1018D00003E0601CC4B20C2CF1DB00BF601CC6B27C
:1018E000304800680079202805D12E4800684079EA
:1018F0003038C5B20BE02B480068417929480068B0
:10190000007930380A2202FB00103038C5B2254871
:101910000068C07930384FF47A714843214909682A
:10192000097A3039642202FB01011E480068407ABE
:1019300030380A2202FB00101A490968897A0844E3
:10194000303887B219480068417818480068007834
:10195000303802FB0010303800F0FF0A13480068EE
:10196000017912480068C078303802FB0010303826
:1019700000F0FF090D480068C1790C4800688079C3
:10198000303802FB0010303800F0FF0853462A467A
:1019900031463846CDE90098FFF7BCFDBDE8FE872B
:1019A000FA23000848000020122400084C00002000
:1019B0000C48806940F004000A4988610A480068C0
:1019C00020F47020084908600846006840F4403060
:1019D000086005480830006840F48050024908312A
:1019E00008607047001002400408014010B55348D9
:1019F000806940F00400514988610846806940F0E0
:101A0000010088614E48006820F00F004C490860D2
:101A10000846006840F008000860022200210846DD
:101A2000FFF7DCFA012200210846FFF7D7FA03236B
:101A3000062219460220FFF789FA10BD10B5414869
:101A40000078B8B10920FFF799FB4820FFF70EFA9C
:101A50004FF461414820FFF737FCFFF7C7FF4721EC
:101A60004FF47A70FEF7C9FB4FF400414FF6FF7058
:101A7000FEF72CFC1420FFF715FA33480068012804
:101A800009D100204FF0804188840846008840F04A
:101A9000010008804DE02C480068002849D14FF033
:101AA0008040008800204FF080410880274800785F
:101AB000E0B127480078C8B10846808CC82190FB67
:101AC000F1F0002812DDC806808C90FBF1F014289C
:101AD0000CDA01201F49087000201D490870012000
:101AE0001A4908700020174908701EE0174800784E
:101AF000D8B118480078C0B14FF08040808CC82120
:101B000090FBF1F0002810DDC806808C90FBF1F00E
:101B100014280ADA00200F49087001200C490870C7
:101B20000A49087000200749087000204FF08041E2
:101B3000888401200849086010BD000000100240A0
:101B4000000801400700002000012142060000209B
:101B500004000020050000201404014045F2555205
:101B6000324B1A601A46506091604AF6AA221A60F7
:101B70004CF6CC421A6070474AF6AA202B490860FE
:101B8000704770B506460C4615462948C06940F4B2
:101B900000602749C861274800783040254908700F
:101BA0002548006840EAC5102349086008460068D7
:101BB00040F400700860084600684FF680710840E5
:101BC0001D4908600846006820430860081F006837
:101BD0001849097841F0800108431749091F086036
:101BE0000223002203211846FFF7B0F970BD124905
:101BF000091F096800F07F0211430F4A121F11608C
:101C0000704710B50C48006800F07F030A48001FB9
:101C1000006800F07F049C4203DA06480078FFF772
:101C2000E6FF00200449091D086010BD0030004097
:101C30000010024052000020042C004070470000B9
:101C40000FB4044910B503AA029800F0D3F810BCF1
:101C50005DF814FB380000202DE9F0410E460446E3
:101C6000002020622046E168884730B3252805D04F
:101C7000D4E901219047206A401CF2E7E168204640
:101C800000278847050018D0A5F14100192802D87F
:101C900020354FF400673246294620462760FEF77C
:101CA0005FFA40B1012804D0F61D26F00706083679
:101CB000D8E7361DD6E72846DAE7206ABDE8F08186
:101CC0002DE9F0410646002410687529314616A515
:101CD00010D0AFF30080002802DA404213A507E0DD
:101CE00031688A0701D512A502E0490704D511A57C
:101CF000012401E0AFF3008000210A2206F124074D
:101D000009E0B0FBF2FCB0FBF2F302FB1C00303048
:101D100078541846491C0028F3D123462A463046F9
:101D2000BDE8F04100F00CB8000000002D000000FC
:101D30002B0000002000000070477047704770477C
:101D40002DE9F0470D4699469246044600F12408D5
:101D50000168880604D5E06921F01001216000E0E7
:101D60000120A84201DD471B00E00027A1697A1984
:101D700002EB0900081AA0612078C00602D42046B0
:101D8000AFF30080002608E0D4E901211AF806002C
:101D90009047206A401C761C20624E45F4DB207878
:101DA000C0060AD52046AFF3008006E0D4E9012141
:101DB00030209047206A401C2062381EA7F101079E
:101DC000F4DC07E0D4E9012118F805009047206A07
:101DD000401C2062281EA5F10105F3DC2046AFF36C
:101DE00000802078000602D50220BDE8F08701209F
:101DF000FBE70000074B70B50D467B4400F011F87F
:101E00000446284600F020F810B14FF0FF3070BDB6
:101E1000204670BD3DF4FFFF01694A1C026108784D
:101E2000704700B58FB0CDE901310021059105491A
:101E30007944CDE9031011466846FFF70DFF0FB056
:101E400000BD0000E5FFFFFF007B00F08000704751
:101E5000754600F02BF8AE4605006946534620F063
:101E60000700854618B020B5FEF7FAFABDE8204015
:101E70004FF000064FF000074FF000084FF0000B46
:101E800021F00701AC46ACE8C009ACE8C009ACE8F9
:101E9000C009ACE8C0098D46704710B50446AFF3E1
:101EA00000802046BDE81040FEF76CB9004870473E
:101EB000F400002090EA010F48BF81F0004100F1DA
:101EC0002E82421A3CBF801A89184FEAD0524FF036
:101ED0007F4C1CEA410FA2EBD15318BF9CEA026F62
:101EE00000F03B804FF0004C4CEA00204CEA01210E
:101EF00021FA03FC10EB0C0C1ED202F1FF325FEA58
:101F00001C2040EBC25038BF70471CF07F0F4FEAD7
:101F1000400C18BFBCF17F4F38BF7047C3F120039E
:101F2000994008BF20F00100BCF17F4F38BF7047D7
:101F3000A0F1C04000F0DDB94FEA3C00000A40EBE0
:101F4000C25028BF1CF0FF0F4FEA400CE6D018BF6C
:101F5000BCF17F4F38BF7047EAE79CEA026F05D0BB
:101F600010EA5C0F08BF00F00040704710B500F0A9
:101F70007AF900BF64FBBE3E4FF47F0C1CEAD0121E
:101F80001EBF1CEAD11392EA0C0F93EA0C0F00F06B
:101F9000858090EA010F48BF42F4807240F4000C43
:101FA00041F400002CF07F4120F07F4000B58142D9
:101FB000A2EB03020FF2081CACEB504EC0F1000084
:101FC0009EF800E04FEA4E0E00FB0EFC38BF4900C1
:101FD0004FEA2C1C02F5FA020CFB0EF34FEACE1E60
:101FE0004FEA112C4FEAC1210EEB635E42EB224215
:101FF0000EFB0CFC4FEA1C5300FB03114FEA112CA3
:102000004FEA01310EFB0CFC4FEADC4C00FB0C11DB
:10201000C14228BF09184CEB03335DF804EB10EB09
:10202000410143EBC250B2F57C0F38BF704729D550
:1020300012F0F00F1CBF00F1C04000F000407047EC
:10204000008182838485868788898B8C8D8E8F9191
:102050009293959697999A9C9D9FA0A2A3A5A7A8B5
:10206000AAACAEB0B2B3B5B7B9BCBEC0C2C5C7C9E1
:10207000CCCED1D4D7D9DCDFE2E6E9ECF0F3F7FA45
:10208000FE0000004FEA400C0CF1807CBCF17E4F5A
:1020900028BF7047B0F1C04000F02BB990EA010FA3
:1020A0000CEAD11348BF42F48072624538BF6345E1
:1020B00007D213F47F0F16D080EA010000F0004031
:1020C000704710B500F0CFF8097EFC3E00F005B86F
:1020D00080EA010000F00040704780EA010000F053
:1020E000004000F006B912F47F0F04BF02487047A9
:1020F00080EA010000F0FDB80000C07FC10DD1F101
:102100009E0206DB4FEA002343F0004323FA02F06D
:102110007047004207D54FEA4001B1F1FE4F02D2AD
:102120004FF00000704710B500F09DF849922480F0
:10213000002070476FEA200070470000B0FA80F37B
:1021400010FA03F2C3F19D030AD0D90501EB122066
:10215000530638BF704700F1010008BF20F00100AE
:10216000704700004FF47F0C1CEAD0121EBF1CEA1F
:10217000D11392EA0C0F93EA0C0F00F0478090EA1B
:10218000010F48BF42F480724FF0004C4CEA00202F
:102190004CEA012102EB0302A0FB0113A2F50002AD
:1021A000002918BF43F001035B0028BF4FEA330347
:1021B00042EB22425FEA132C4CEBC2502EBFBCEB29
:1021C000436FB2F57C0F70474FEA036CBCF1004FD0
:1021D00008BF20F00100B2F57C0F38BF70470BD567
:1021E00082F0FF0212F5803FC8BF704700F1C04087
:1021F000D8BF00F00040704700F5000C5FEA4C0CBF
:1022000048BF7047B0F1C04000F073B890EA010FCA
:102210000CEAD11348BF42F48072624538BF63456F
:1022200004D280EA010000F00040704710B500F0D1
:102230001AF800BF8900013E00F007B800F009B8A5
:102240005FEA410C5FEA1C6C08D080EA010000F0F4
:1022500050B85FEA400C5FEA1C6CF6D14FF00040CA
:10226000A0F5800070470EF1020E2EF0030E5EF80E
:10227000044B244204D44FEA4102B2F17F4F11D8FB
:102280004FEA4003B3F17F4F0CD80ED14FEAD07C18
:10229000B2F17F4F0CEB4C0C0CF1020C08BF4CEB75
:1022A000D17C04E04FF0080C01E04FEAD17C0CEB4C
:1022B0004C0324FA03F404F00704B4F1040C06D22E
:1022C0000EEB840CBDE810404CF0010C6047DFE8D9
:1022D0000CF0070802024FF00040A0F5800010BD8E
:1022E0000846420018BFD2F1807288BF00F000405B
:1022F00010BDFF2141EAD050C005704780F000407A
:1023000090EA010F7FF5DDAD81F0004100F007B8E4
:1023100090EA010F48BF81F000413FF5D2AD421A6B
:1023200004D882F00042A0EB020011444FEAD052E0
:102330004FF07F4C1CEA410FA2EBD15318BF9CEA2F
:10234000026F4AD04FF0004C4CEA00204CEA0121C9
:1023500021FA03FCB0EB0C0C0FD412F0FE0F36D0B8
:102360005FEA4C001DD5001240EBC25038BF7047E9
:102370001CF03F0F18BF70470BE0A2F101025FEAAB
:102380001C2040EBC25038BF70471CF07F0F18BFB5
:102390007047C3F12003994014BF401E20F0010094
:1023A000704780084FEA122308BF7047B0FA80FCDC
:1023B000A2EB0C02CCF1280C60FA0CF093EA122F7D
:1023C00004BF00EBC25070474FEAC3707047130A56
:1023D0005FEADC1008BF7047F6E79CEA026F04D0A2
:1023E00010EA5C0F08BF0020704710B5FFF73BFFF5
:1023F00040DFF63E81F00040704700030306010411
:102400000602050003051F1C1F1E1F1E1F1F1E1F87
:102410001E1F4A616E4665624D61724170724D6168
:10242000794A756E4A756C4175675365704F637470
:102430004E6F7644656300005824000800000020B9
:102440005400000028010008AC24000854000020BB
:102450000403000044010008000000000000000127
:10246000000000000000000003000400050006005A
:102470000C000C000C000200000000000001020330
:102480000405060700010100000000000000000034
:10249000000000000000000000000806091B00000A
:0C24A000000000000000000000007F00B1
:04000005080000ED02
:00000001FF
